:100000000C942A000C9447000C9447000C94470071
:100010000C9447000C9447000C9447000C94470044
:100020000C9447000C9447000C9447000C94470034
:100030000C9447000C9447000C9447000C94470024
:100040000C9447000C9447000C9447000C94470014
:100050000C94470011241FBECFE5D8E0DEBFCDBF12
:1000600010E0A0E6B0E0E0E1FCE002C005900D92F7
:10007000A23DB107D9F710E0A2EDB0E001C01D929A
:10008000A33DB107E1F70E9498000C9406060C947A
:100090000000AC0120E030E0FA01E20FF31FDB01C9
:1000A000A20FB31F90818C91981711F080E00895F2
:1000B0002F5F3F4F2630310579F781E00895EF92A9
:1000C000FF921F93CF93DF93EC0188EB9BE028EC2A
:1000D00030E0F9013197F1F70197D9F70E94F40266
:1000E00088838AE20E948F0310E088ECE82EF12CCE
:1000F00011C088E893E1F7013197F1F70197D9F73B
:100100001F5F0E94F402FE01E10FF11D80838AE26D
:100110000E948F03FE01E10FF11D80818D3349F7AD
:1001200083E28083DF91CF911F91FF90EF9008953C
:10013000AF92BF92CF92DF92EF92FF921F93DF9325
:10014000CF93CDB7DEB72C970FB6F894DEBF0FBEB6
:10015000CDBF8BEC90E00E943E050E940C0510E0A4
:100160007E010894E11CF11C27E0C22ED12CCC0E9C
:10017000DD1E98ECA92EB12C01C011E08091D200B7
:10018000833030F08AEA0E9473058FEF0E94730576
:10019000113009F446C0113030F0123009F45FC05C
:1001A000133061F7A2C00E94EA0480E060E00E9480
:1001B000EE0480E690E00E94220481E060E00E946C
:1001C000EE04C7010E945F000E94EA0480E060E044
:1001D0000E94EE048DE690E00E94220481E060E03F
:1001E0000E94EE0488E790E00E942204C6010E946B
:1001F0005F0020E030E0F701E20FF31FD601A20F0D
:10020000B31F90818C91981709F093C02F5F3F4FD7
:100210002630310581F793C00E9477058C3CE1F7C9
:10022000ACCF0E94EA0480E060E00E94EE0480E827
:1002300090E00E94220481E060E00E94EE048EE8DB
:1002400090E00E9422040E94F4028B3221F08D3251
:1002500009F094CF02C012E091CF13E08FCF0E943B
:10026000EA0480E060E00E94EE0480E690E00E94F4
:10027000220481E060E00E94EE04C7010E945F005A
:100280008AEA0E94730589E00E947305C7010E94F3
:100290007B050E947705803109F045C08AEA0E94FB
:1002A00073058BEB0E9473050E94EA0480E060E016
:1002B0000E94EE048EE990E00E9422048FEF9FEFEF
:1002C000F5013197F1F70197D9F780E060E00E94DE
:1002D000EE048DEA90E00E9422048FEF9FEFF5017B
:1002E0003197F1F70197D9F748CF0E94EA0480E0EF
:1002F00060E00E94EE0480E690E00E94220481E02B
:1003000060E00E94EE04C7010E945F008AEA0E943A
:10031000730589E00E947305C7010E947B050E9456
:100320007705803121F0833109F028CF02C010E039
:1003300025CF8091D2008F5F8093D2001FCF8AEAB1
:100340000E9473058DED0E947305C7010E947B0515
:100350000E94EA0480E060E00E94EE048CEB90E0F2
:100360000E94220459CF683008F070C0843008F031
:100370006DC0813009F1813030F08230B1F18330CD
:1003800009F064C04BC0413059F42AB381E090E0D9
:1003900002C0880F991F6A95E2F7282B2ABB08959F
:1003A0002AB381E090E002C0880F991F6A95E2F7B6
:1003B000809582238ABB0895413059F427B381E0A8
:1003C00090E002C0880F991F6A95E2F7282B27BB9F
:1003D000089527B381E090E002C0880F991F6A95C5
:1003E000E2F78095822387BB0895413059F424B306
:1003F00081E090E002C0880F991F6A95E2F7282BF0
:1004000024BB089524B381E090E002C0880F991FB7
:100410006A95E2F78095822384BB0895413059F4B0
:1004200021B381E090E002C0880F991F6A95E2F73E
:10043000282B21BB089521B381E090E002C0880FF2
:10044000991F6A95E2F78095822381BB08956830F1
:1004500008F070C0843008F06DC0813009F181303F
:1004600030F08230B1F1833009F064C04BC04130CC
:1004700059F42BB381E090E002C0880F991F6A9570
:10048000E2F7282B2BBB08952BB381E090E002C04C
:10049000880F991F6A95E2F7809582238BBB089598
:1004A000413059F428B381E090E002C0880F991FD1
:1004B0006A95E2F7282B28BB089528B381E090E0E5
:1004C00002C0880F991F6A95E2F78095822388BB46
:1004D0000895413059F425B381E090E002C0880FBF
:1004E000991F6A95E2F7282B25BB089525B381E073
:1004F00090E002C0880F991F6A95E2F780958223E9
:1005000085BB0895413059F422B381E090E002C0E8
:10051000880F991F6A95E2F7282B22BB089522B312
:1005200081E090E002C0880F991F6A95E2F78095FC
:10053000822382BB08956830D0F48430C0F48130C7
:1005400049F0813028F0823039F0833081F406C0E0
:1005500089B305C086B303C083B301C080B390E004
:1005600002C0959587956A95E2F78170089580E0BD
:100570000895843080F4813049F0813028F0823051
:1005800039F0833041F406C06ABB089567BB089513
:1005900064BB089561BB0895843080F4813049F0D4
:1005A000813028F0823039F0833041F406C06BBBD3
:1005B000089568BB089565BB089562BB08958430B3
:1005C00088F4813049F0813028F0823039F083306E
:1005D00049F406C089B3089586B3089583B3089596
:1005E00080B3089580E00895FF920F931F9382E0F7
:1005F00060E040E00E94B30182E061E040E00E94E0
:10060000B30182E062E040E00E94B30182E063E077
:1006100040E00E94B30182E064E040E00E94B30148
:1006200082E065E040E00E94B30182E066E040E0E5
:100630000E94B30182E067E040E00E94B3016CC019
:10064000F02E82E0602F41E00E94B30182E0602F33
:1006500040E00E94270210E01C5F82E0612F0E94B0
:100660009B02612F6350882309F049C08F2D880FAA
:10067000880F860F883081F1893080F4843021F131
:10068000853038F48230D1F08330E0F4813099F550
:1006900017C08630E9F08730E8F418C08C3021F1BB
:1006A0008D3028F48A30E1F08B30E0F417C08F30C1
:1006B000F9F08031F9F08E30F1F418C088E01BC0F9
:1006C00087E019C089E017C085E215C084E013C037
:1006D00085E011C086E00FC08AE20DC081E00BC04A
:1006E00082E009C083E007C08DE205C080E003C05E
:1006F0008DE301C08BE21F910F91FF900895162F9B
:10070000643009F0A9CF82E0602F40E00E94B3017D
:100710000F5F043008F494CF00E0FF2492CFDF9203
:10072000EF92FF920F931F93D82E80E065E041E097
:100730000E942702E0EDEE2EE7E0FE2EC7010197B2
:10074000F1F780E064E041E00E942702C7010197D1
:10075000F1F70D2D10E0A8014071507074E055952F
:1007600047957A95E1F780E063E00E942702A801AF
:100770004072507065E0559547956A95E1F780E0C5
:1007800062E00E942702A8014074507036E055953F
:1007900047953A95E1F780E061E00E9427024D2DF0
:1007A000441F4427441F80E060E00E942702C701E5
:1007B0000197F1F780E064E040E00E942702C70162
:1007C0000197F1F780E064E041E00E942702C70151
:1007D0000197F1F781E0D82280E063E04D2D0E947F
:1007E0002702A801427050705595479580E062E05D
:1007F0000E942702A8014470507055954795559561
:10080000479580E061E00E9427020870107083E045
:10081000159507958A95E1F780E060E0402F0E94EA
:100820002702C7010197F1F780E064E040E00E94F1
:100830002702C7010197F1F71F910F91FF90EF90E9
:10084000DF9008951F93CF93DF93EC0110E003C076
:100850000E948F031F5FFE01E10FF11D808188233D
:10086000B9F7DF91CF911F9108950F931F93DF93F5
:10087000CF93CDB7DEB760970FB6F894DEBF0FBE4B
:10088000CDBF8E010F5F1F4FB8014AE050E00E94BC
:10089000C105C8010E94220460960FB6F894DEBF1D
:1008A0000FBECDBFCF91DF911F910F910895DF92C1
:1008B000EF92FF920F931F93D82E80E065E040E007
:1008C0000E94270230EDE32E37E0F32EC701019797
:1008D000F1F780E064E041E00E942702C701019740
:1008E000F1F70D2D10E0A8014071507024E05595EE
:1008F00047952A95E1F780E063E00E942702A8016E
:100900004072507095E0559547959A95E1F780E0D3
:1009100062E00E942702A8014074507086E055955D
:1009200047958A95E1F780E061E00E9427024D2D0E
:10093000441F4427441F80E060E00E942702C70153
:100940000197F1F780E064E040E00E942702C701D0
:100950000197F1F780E064E041E00E942702C701BF
:100960000197F1F781E0D82280E063E04D2D0E94ED
:100970002702A801427050705595479580E062E0CB
:100980000E942702A80144705070559547955595CF
:10099000479580E061E00E94270208701070F3E044
:1009A00015950795FA95E1F780E060E0402F0E94E9
:1009B0002702C7010197F1F780E064E040E00E9460
:1009C0002702C7010197F1F71F910F91FF90EF9058
:1009D000DF90089581E00E9457040895813039F036
:1009E000813050F0823029F0833031F404C0605CF3
:1009F00003C0605F01C0605B862F80680E9457045F
:100A000008950F931F938A010E94EE04C8010E946B
:100A100022041F910F91089580E065E041E00E945B
:100A2000B30180E064E041E00E94B30180E49CE90E
:100A30000197F1F780E063E041E00E94B30180E0BC
:100A400062E041E00E94B30180E061E041E00E9489
:100A5000B30180E060E041E00E94B30183E30E94C3
:100A6000570482E30E94570488E20E9457048CE0F6
:100A70000E94570481E00E94570408950F931F932A
:100A80008C01FC01238134814581568163E0220F72
:100A9000331F441F551F6A95D1F760E072E18AE762
:100AA00090E00E949F052150304080B58F7780BD37
:100AB00030BD29B982E08BB988E18AB9F801828119
:100AC000880F880F880F21812295207F282B20688E
:100AD000808190E083709070880F991F282B20BD33
:100AE0001F910F9108955D9BFECF8CB908955F9B78
:100AF000FECF8CB1089520E004C05D9BFECFECB921
:100B00002F5FFC01E20FF11DE081EE23B1F70895A4
:100B1000DC015F9BFECF8CB18C9390E008C09F5F9F
:100B20005F9BFECF8CB1FD01E90FF11D8083FD01BC
:100B3000E90FF11D8081833291F710820895A1E2BF
:100B40001A2EAA1BBB1BFD010DC0AA1FBB1FEE1F47
:100B5000FF1FA217B307E407F50720F0A21BB30B92
:100B6000E40BF50B661F771F881F991F1A9469F70E
:100B700060957095809590959B01AC01BD01CF016A
:100B80000895FB019F01E8944230C4F04532B4F46B
:100B90004A3029F497FB1EF4909581959F4F642F5E
:100BA00077270E94F205805D8A330CF0895D81937E
:100BB000CB010097A1F716F45DE251931082C901B1
:100BC0000C94E205DC01FC01672F71917723E1F7BA
:100BD000329704C07C916D9370836291AE17BF070A
:100BE000C8F30895AA1BBB1B51E107C0AA1FBB1F76
:100BF000A617B70710F0A61BB70B881F991F5A95A9
:100C0000A9F780959095BC01CD010895F894FFCF88
:100C1000456E7465722050617373203A00456E749E
:100C20006572205061737300616761696E3A2000DC
:100C30002B203A204F70656E20446F6F72002D207C
:100C40003A204368616E6765205061737300446F9A
:100C50006F72204F70656E696E672E2E00446F6F45
:100C60007220436C6F73696E672E2E00506C656145
:100C7000736520776169742E2E2E00030200802593
:020C8000000072
:00000001FF
