:100000000C942A000C9447000C9447000C94470071
:100010000C9447000C9447000C9447000C94470044
:100020000C9447000C9447000C9447000C94470034
:100030000C9447000C9447000C9447000C94470024
:100040000C9447000C9447000C9447000C94470014
:100050000C94470011241FBECFE5D8E0DEBFCDBF12
:1000600010E0A0E6B0E0EAE5F7E002C005900D92EE
:10007000A836B107D9F710E0A8E6B0E001C01D929C
:10008000AD36B107E1F70E9449000C94AB030C9424
:1000900000008F929F92AF92BF92CF92DF92EF9229
:1000A000FF920F931F93DF93CF93CDB7DEB72C97BB
:1000B0000FB6F894DEBF0FBECDBF0E941B0180E6D5
:1000C00090E00E9414030E94D5000E94EC026E0191
:1000D0000894C11CD11C97E0892E912C8C0E9D1E7A
:1000E0008DE0A82EB12CAC0EBD1E0E944D038A3AA5
:1000F000E1F70E944D03893021F18D3DB1F7C60132
:100100000E945E0381E193E069810E947A0181E1AE
:1001100093E06A810E947A0181E193E06B810E9401
:100120007A0181E193E06C810E947A0181E193E0A0
:100130006D810E947A0181E193E06E810E947A01D3
:100140001FC0C6010E945E038401760181E193E035
:10015000B8010E943501F7019081F801808198175C
:1001600049F40F5F1F4F0894E11CF11C0A151B0591
:1001700069F70AC08AEA0E94490383E10E944903A1
:100180008CEC0E944903B1CF8AEA0E94490380E1C6
:10019000F5CF83E063E040E00E941F02089583E012
:1001A00063E041E00E941F02089583E063E041E0C4
:1001B0000E94AB0183E063E040E00E941F020895CB
:1001C00012BE8CBF8AE683BF0895282F882369F466
:1001D00012BE1CBE8AE683BF83E065E040E00E9459
:1001E0001F0283E066E040E016C08FEF689FC00109
:1001F000112464E670E00E94750312BE6CBF8AE6AB
:1002000083BF213059F483E065E040E00E941F0283
:1002100083E066E041E00E941F020895223051F41D
:1002200083E065E041E00E941F0283E066E040E079
:100230000E941F02089583E064E041E00E94AB0148
:1002400083E065E041E00E94AB0183E066E041E0CD
:100250000E94AB0183E065E040E00E941F0283E062
:1002600066E040E00E941F020895EF92FF921F9304
:10027000CF93DF93EC017B010E94F3020E941103F4
:10028000883089F5CE01880F892F881F990B9195A9
:10029000182F1E70812F806A0E94FC020E94110399
:1002A000883109F58C2F0E94FC020E9411038832CC
:1002B000D1F40E94F3020E9411038031A1F4812F36
:1002C000816A0E94FC020E941103803461F40E9442
:1002D0000A03F70180830E941103883521F40E94EC
:1002E000F90281E001C080E0DF91CF911F91FF9082
:1002F000EF9008951F93CF93DF93EC01162F0E9488
:10030000F3020E941103883009F5CE0180709770C6
:10031000880F892F881F990B9195806A0E94FC0293
:100320000E941103883191F48C2F0E94FC020E94DC
:100330001103883259F4812F0E94FC020E9411039C
:10034000883221F40E94F90281E001C080E0DF914F
:10035000CF911F910895683008F070C0843008F084
:100360006DC0813009F1813030F08230B1F18330DD
:1003700009F064C04BC0413059F42AB381E090E0E9
:1003800002C0880F991F6A95E2F7282B2ABB0895AF
:100390002AB381E090E002C0880F991F6A95E2F7C6
:1003A000809582238ABB0895413059F427B381E0B8
:1003B00090E002C0880F991F6A95E2F7282B27BBAF
:1003C000089527B381E090E002C0880F991F6A95D5
:1003D000E2F78095822387BB0895413059F424B316
:1003E00081E090E002C0880F991F6A95E2F7282B00
:1003F00024BB089524B381E090E002C0880F991FC8
:100400006A95E2F78095822384BB0895413059F4C0
:1004100021B381E090E002C0880F991F6A95E2F74E
:10042000282B21BB089521B381E090E002C0880F02
:10043000991F6A95E2F78095822381BB0895683001
:1004400008F070C0843008F06DC0813009F181304F
:1004500030F08230B1F1833009F064C04BC04130DC
:1004600059F42BB381E090E002C0880F991F6A9580
:10047000E2F7282B2BBB08952BB381E090E002C05C
:10048000880F991F6A95E2F7809582238BBB0895A8
:10049000413059F428B381E090E002C0880F991FE1
:1004A0006A95E2F7282B28BB089528B381E090E0F5
:1004B00002C0880F991F6A95E2F78095822388BB56
:1004C0000895413059F425B381E090E002C0880FCF
:1004D000991F6A95E2F7282B25BB089525B381E083
:1004E00090E002C0880F991F6A95E2F780958223F9
:1004F00085BB0895413059F422B381E090E002C0F9
:10050000880F991F6A95E2F7282B22BB089522B322
:1005100081E090E002C0880F991F6A95E2F780950C
:10052000822382BB08956830D0F48430C0F48130D7
:1005300049F0813028F0823039F0833081F406C0F0
:1005400089B305C086B303C083B301C080B390E014
:1005500002C0959587956A95E2F78170089580E0CD
:100560000895843080F4813049F0813028F0823061
:1005700039F0833041F406C06ABB089567BB089523
:1005800064BB089561BB0895843080F4813049F0E4
:10059000813028F0823039F0833041F406C06BBBE3
:1005A000089568BB089565BB089562BB08958430C3
:1005B00088F4813049F0813028F0823039F083307E
:1005C00049F406C089B3089586B3089583B30895A6
:1005D00080B3089580E0089582E080B911B882B9AF
:1005E00084E086BF089584EA86BF06B607FEFDCF85
:1005F000089584E986BF089583B984E886BF06B666
:1006000007FEFDCF089584EC86BF06B607FEFDCF3A
:1006100083B1089584E886BF06B607FEFDCF83B197
:10062000089581B1887F08950F931F938C01FC0179
:10063000238134814581568163E0220F331F441F9B
:10064000551F6A95D1F760E072E18AE790E00E9459
:1006500089032150304080B58F7780BD30BD29B9E6
:1006600082E08BB988E18AB9F8018281880F880F0E
:10067000880F21812295207F282B2068808190E09F
:1006800083709070880F991F282B20BD1F910F91A8
:1006900008955D9BFECF8CB908955F9BFECF8CB112
:1006A000089520E004C05D9BFECFECB92F5FFC01F4
:1006B000E20FF11DE081EE23B1F70895DC015F9BAD
:1006C000FECF8CB18C9390E008C09F5F5F9BFECF04
:1006D0008CB1FD01E90FF11D8083FD01E90FF11DD2
:1006E0008081833291F710820895AA1BBB1B51E1D0
:1006F00007C0AA1FBB1FA617B70710F0A61BB70B92
:10070000881F991F5A95A9F780959095BC01CD0136
:100710000895A1E21A2EAA1BBB1BFD010DC0AA1F42
:10072000BB1FEE1FFF1FA217B307E407F50720F05A
:10073000A21BB30BE40BF50B661F771F881F991FD5
:100740001A9469F760957095809590959B01AC011E
:0A075000BD01CF010895F894FFCF1A
:08075A000302008025000000ED
:00000001FF
